{
  "_format": "hh3-artifact-1",
  "contractName": "AIJudge",
  "sourceName": "contracts/AIJudge.sol",
  "abi": [
    {
      "anonymous": false,
      "inputs": [
        {
          "indexed": true,
          "internalType": "uint256",
          "name": "bountyId",
          "type": "uint256"
        },
        {
          "indexed": false,
          "internalType": "bytes",
          "name": "aiReview",
          "type": "bytes"
        }
      ],
      "name": "AllAnswersJudged",
      "type": "event"
    },
    {
      "anonymous": false,
      "inputs": [
        {
          "indexed": true,
          "internalType": "uint256",
          "name": "bountyId",
          "type": "uint256"
        },
        {
          "indexed": true,
          "internalType": "uint256",
          "name": "submissionIndex",
          "type": "uint256"
        },
        {
          "indexed": true,
          "internalType": "address",
          "name": "submitter",
          "type": "address"
        }
      ],
      "name": "AnswerRevealed",
      "type": "event"
    },
    {
      "anonymous": false,
      "inputs": [
        {
          "indexed": true,
          "internalType": "uint256",
          "name": "bountyId",
          "type": "uint256"
        },
        {
          "indexed": true,
          "internalType": "address",
          "name": "owner",
          "type": "address"
        },
        {
          "indexed": false,
          "internalType": "string",
          "name": "title",
          "type": "string"
        },
        {
          "indexed": false,
          "internalType": "uint256",
          "name": "reward",
          "type": "uint256"
        },
        {
          "indexed": false,
          "internalType": "uint256",
          "name": "submissionDeadline",
          "type": "uint256"
        },
        {
          "indexed": false,
          "internalType": "uint256",
          "name": "revealDeadline",
          "type": "uint256"
        }
      ],
      "name": "BountyCreated",
      "type": "event"
    },
    {
      "anonymous": false,
      "inputs": [
        {
          "indexed": true,
          "internalType": "uint256",
          "name": "bountyId",
          "type": "uint256"
        },
        {
          "indexed": true,
          "internalType": "uint256",
          "name": "submissionIndex",
          "type": "uint256"
        },
        {
          "indexed": true,
          "internalType": "address",
          "name": "submitter",
          "type": "address"
        }
      ],
      "name": "CommitmentSubmitted",
      "type": "event"
    },
    {
      "anonymous": false,
      "inputs": [
        {
          "indexed": true,
          "internalType": "uint256",
          "name": "bountyId",
          "type": "uint256"
        },
        {
          "indexed": true,
          "internalType": "uint256",
          "name": "winnerIndex",
          "type": "uint256"
        },
        {
          "indexed": true,
          "internalType": "address",
          "name": "winner",
          "type": "address"
        },
        {
          "indexed": false,
          "internalType": "uint256",
          "name": "reward",
          "type": "uint256"
        }
      ],
      "name": "WinnerFinalized",
      "type": "event"
    },
    {
      "inputs": [],
      "name": "MAX_ANSWER_LENGTH",
      "outputs": [
        {
          "internalType": "uint256",
          "name": "",
          "type": "uint256"
        }
      ],
      "stateMutability": "view",
      "type": "function"
    },
    {
      "inputs": [],
      "name": "MAX_SUBMISSIONS",
      "outputs": [
        {
          "internalType": "uint256",
          "name": "",
          "type": "uint256"
        }
      ],
      "stateMutability": "view",
      "type": "function"
    },
    {
      "inputs": [
        {
          "internalType": "uint256",
          "name": "",
          "type": "uint256"
        }
      ],
      "name": "bounties",
      "outputs": [
        {
          "internalType": "address",
          "name": "owner",
          "type": "address"
        },
        {
          "internalType": "string",
          "name": "title",
          "type": "string"
        },
        {
          "internalType": "string",
          "name": "rubric",
          "type": "string"
        },
        {
          "internalType": "uint256",
          "name": "reward",
          "type": "uint256"
        },
        {
          "internalType": "uint256",
          "name": "submissionDeadline",
          "type": "uint256"
        },
        {
          "internalType": "uint256",
          "name": "revealDeadline",
          "type": "uint256"
        },
        {
          "internalType": "bool",
          "name": "judged",
          "type": "bool"
        },
        {
          "internalType": "bool",
          "name": "finalized",
          "type": "bool"
        },
        {
          "internalType": "bytes",
          "name": "aiReview",
          "type": "bytes"
        },
        {
          "internalType": "uint256",
          "name": "winnerIndex",
          "type": "uint256"
        }
      ],
      "stateMutability": "view",
      "type": "function"
    },
    {
      "inputs": [
        {
          "internalType": "string",
          "name": "title",
          "type": "string"
        },
        {
          "internalType": "string",
          "name": "rubric",
          "type": "string"
        },
        {
          "internalType": "uint256",
          "name": "submissionDeadline",
          "type": "uint256"
        },
        {
          "internalType": "uint256",
          "name": "revealDeadline",
          "type": "uint256"
        }
      ],
      "name": "createBounty",
      "outputs": [
        {
          "internalType": "uint256",
          "name": "bountyId",
          "type": "uint256"
        }
      ],
      "stateMutability": "payable",
      "type": "function"
    },
    {
      "inputs": [
        {
          "internalType": "uint256",
          "name": "bountyId",
          "type": "uint256"
        },
        {
          "internalType": "uint256",
          "name": "winnerIndex",
          "type": "uint256"
        }
      ],
      "name": "finalizeWinner",
      "outputs": [],
      "stateMutability": "nonpayable",
      "type": "function"
    },
    {
      "inputs": [
        {
          "internalType": "uint256",
          "name": "bountyId",
          "type": "uint256"
        }
      ],
      "name": "getBounty",
      "outputs": [
        {
          "internalType": "address",
          "name": "owner",
          "type": "address"
        },
        {
          "internalType": "string",
          "name": "title",
          "type": "string"
        },
        {
          "internalType": "string",
          "name": "rubric",
          "type": "string"
        },
        {
          "internalType": "uint256",
          "name": "reward",
          "type": "uint256"
        },
        {
          "internalType": "uint256",
          "name": "submissionDeadline",
          "type": "uint256"
        },
        {
          "internalType": "uint256",
          "name": "revealDeadline",
          "type": "uint256"
        },
        {
          "internalType": "bool",
          "name": "judged",
          "type": "bool"
        },
        {
          "internalType": "bool",
          "name": "finalized",
          "type": "bool"
        },
        {
          "internalType": "uint256",
          "name": "submissionCount",
          "type": "uint256"
        },
        {
          "internalType": "uint256",
          "name": "winnerIndex",
          "type": "uint256"
        },
        {
          "internalType": "bytes",
          "name": "aiReview",
          "type": "bytes"
        }
      ],
      "stateMutability": "view",
      "type": "function"
    },
    {
      "inputs": [
        {
          "internalType": "uint256",
          "name": "bountyId",
          "type": "uint256"
        },
        {
          "internalType": "uint256",
          "name": "index",
          "type": "uint256"
        }
      ],
      "name": "getSubmission",
      "outputs": [
        {
          "internalType": "address",
          "name": "submitter",
          "type": "address"
        },
        {
          "internalType": "bytes32",
          "name": "commitment",
          "type": "bytes32"
        },
        {
          "internalType": "bool",
          "name": "revealed",
          "type": "bool"
        },
        {
          "internalType": "string",
          "name": "answer",
          "type": "string"
        }
      ],
      "stateMutability": "view",
      "type": "function"
    },
    {
      "inputs": [
        {
          "internalType": "uint256",
          "name": "bountyId",
          "type": "uint256"
        },
        {
          "internalType": "bytes",
          "name": "llmInput",
          "type": "bytes"
        }
      ],
      "name": "judgeAll",
      "outputs": [],
      "stateMutability": "nonpayable",
      "type": "function"
    },
    {
      "inputs": [],
      "name": "nextBountyId",
      "outputs": [
        {
          "internalType": "uint256",
          "name": "",
          "type": "uint256"
        }
      ],
      "stateMutability": "view",
      "type": "function"
    },
    {
      "inputs": [
        {
          "internalType": "uint256",
          "name": "bountyId",
          "type": "uint256"
        },
        {
          "internalType": "uint256",
          "name": "submissionIndex",
          "type": "uint256"
        },
        {
          "internalType": "string",
          "name": "answer",
          "type": "string"
        },
        {
          "internalType": "bytes32",
          "name": "salt",
          "type": "bytes32"
        }
      ],
      "name": "revealAnswer",
      "outputs": [],
      "stateMutability": "nonpayable",
      "type": "function"
    },
    {
      "inputs": [
        {
          "internalType": "uint256",
          "name": "bountyId",
          "type": "uint256"
        },
        {
          "internalType": "bytes32",
          "name": "commitment",
          "type": "bytes32"
        }
      ],
      "name": "submitCommitment",
      "outputs": [],
      "stateMutability": "nonpayable",
      "type": "function"
    }
  ],
  "bytecode": "0x608060405260015f81905580546001600160a01b03191673532f0df0896f353d8c3dd8cc134e8129da2a3948179055348015610039575f80fd5b50611e41806100475f395ff3fe60806040526004361061009a575f3560e01c8063e31202c011610062578063e31202c014610169578063e6a3d9dc1461017c578063ee8c4bbf1461019b578063f6dab47b146101d1578063fd14fad4146101f0578063fd3a832914610204575f80fd5b80635a7722f11461009e5780638e789683146100bf578063b7ed7071146100e6578063d8964ee914610115578063dc2f874414610134575b5f80fd5b3480156100a9575f80fd5b506100bd6100b8366004611510565b610219565b005b3480156100ca575f80fd5b506100d3600a81565b6040519081526020015b60405180910390f35b3480156100f1575f80fd5b50610105610100366004611510565b6104ec565b6040516100dd949392919061157d565b348015610120575f80fd5b506100bd61012f3660046115fa565b610643565b34801561013f575f80fd5b5061015361014e366004611642565b61091e565b6040516100dd9a99989796959493929190611659565b6100d36101773660046116e1565b610b13565b348015610187575f80fd5b506100bd610196366004611510565b610cd7565b3480156101a6575f80fd5b506101ba6101b5366004611642565b610ef7565b6040516100dd9b9a99989796959493929190611759565b3480156101dc575f80fd5b506100bd6101eb3660046117e8565b611166565b3480156101fb575f80fd5b506100d35f5481565b34801561020f575f80fd5b506100d36107d081565b5f8281526002602052604090205482906001600160a01b03166102575760405162461bcd60e51b815260040161024e9061183e565b60405180910390fd5b5f8381526002602052604090205483906001600160a01b031633146102b15760405162461bcd60e51b815260206004820152601060248201526f3737ba103137bab73a3c9037bbb732b960811b604482015260640161024e565b5f848152600260205260409020600681015460ff166103035760405162461bcd60e51b815260206004820152600e60248201526d1b9bdd081a9d5919d959081e595d60921b604482015260640161024e565b6006810154610100900460ff161561032d5760405162461bcd60e51b815260040161024e90611868565b600981015484106103505760405162461bcd60e51b815260040161024e90611893565b806009018481548110610365576103656118ba565b5f91825260209091206002600490920201015460ff166103bf5760405162461bcd60e51b81526020600482015260156024820152741dda5b9b995c88191a59081b9bdd081c995d99585b605a1b604482015260640161024e565b60068101805461ff001916610100179055600881018490556009810180545f9190869081106103f0576103f06118ba565b5f918252602082206004919091020154600384018054908390556040516001600160a01b0390921693509190839083908381818185875af1925050503d805f8114610456576040519150601f19603f3d011682016040523d82523d5f602084013e61045b565b606091505b505090508061049d5760405162461bcd60e51b815260206004820152600e60248201526d1c185e5b595b9d0819985a5b195960921b604482015260640161024e565b826001600160a01b031687897f2eb0120759ae6dd1505f3f092609ec7e75433fb2401ad648ebeb5bd4bd55e5b6856040516104da91815260200190565b60405180910390a45050505050505050565b5f828152600260205260408120548190819060609086906001600160a01b03166105285760405162461bcd60e51b815260040161024e9061183e565b5f878152600260205260409020600981015487106105585760405162461bcd60e51b815260040161024e90611893565b5f81600901888154811061056e5761056e6118ba565b5f91825260209091206004909102018054600182015460028301546003840180549495506001600160a01b0390931693919260ff9091169181906105b1906118ce565b80601f01602080910402602001604051908101604052809291908181526020018280546105dd906118ce565b80156106285780601f106105ff57610100808354040283529160200191610628565b820191905f5260205f20905b81548152906001019060200180831161060b57829003601f168201915b50505050509050965096509650965050505092959194509250565b5f8381526002602052604090205483906001600160a01b03166106785760405162461bcd60e51b815260040161024e9061183e565b5f8481526002602052604090205484906001600160a01b031633146106d25760405162461bcd60e51b815260206004820152601060248201526f3737ba103137bab73a3c9037bbb732b960811b604482015260640161024e565b5f858152600260205260409020600581015442101561072b5760405162461bcd60e51b81526020600482015260156024820152743932bb32b0b610383430b9b2903737ba1037bb32b960591b604482015260640161024e565b600681015460ff16156107715760405162461bcd60e51b815260206004820152600e60248201526d185b1c9958591e481a9d5919d95960921b604482015260640161024e565b6006810154610100900460ff161561079b5760405162461bcd60e51b815260040161024e90611868565b5f805b60098301548110156107f0578260090181815481106107bf576107bf6118ba565b5f91825260209091206002600490920201015460ff16156107e857816107e48161191a565b9250505b60010161079e565b505f81116108365760405162461bcd60e51b81526020600482015260136024820152726e6f2072657665616c656420616e737765727360681b604482015260640161024e565b5f61087861080288888080601f0160208091040260200160405190810160405280939291908181526020018383808284375f9201919091525061143c92505050565b90505f805f838060200190518101906108919190611a6b565b5093505092509250821581906108ba5760405162461bcd60e51b815260040161024e9190611b28565b5060068601805460ff19166001179055600786016108d88382611b8d565b508a7fb51288ae628dca25614026175dc22a78631acc1a31f034c68c3fa241ca0fd05c836040516109099190611b28565b60405180910390a25050505050505050505050565b60026020525f9081526040902080546001820180546001600160a01b039092169291610949906118ce565b80601f0160208091040260200160405190810160405280929190818152602001828054610975906118ce565b80156109c05780601f10610997576101008083540402835291602001916109c0565b820191905f5260205f20905b8154815290600101906020018083116109a357829003601f168201915b5050505050908060020180546109d5906118ce565b80601f0160208091040260200160405190810160405280929190818152602001828054610a01906118ce565b8015610a4c5780601f10610a2357610100808354040283529160200191610a4c565b820191905f5260205f20905b815481529060010190602001808311610a2f57829003601f168201915b50505050600383015460048401546005850154600686015460078701805496979496939550919360ff8083169461010090930416929091610a8c906118ce565b80601f0160208091040260200160405190810160405280929190818152602001828054610ab8906118ce565b8015610b035780601f10610ada57610100808354040283529160200191610b03565b820191905f5260205f20905b815481529060010190602001808311610ae657829003601f168201915b505050505090806008015490508a565b5f803411610b555760405162461bcd60e51b815260206004820152600f60248201526e1c995dd85c99081c995c5d5a5c9959608a1b604482015260640161024e565b428311610bb25760405162461bcd60e51b815260206004820152602560248201527f7375626d697373696f6e20646561646c696e65206d75737420626520696e2066604482015264757475726560d81b606482015260840161024e565b828211610c1b5760405162461bcd60e51b815260206004820152603160248201527f72657665616c20646561646c696e65206d757374206265206166746572207375604482015270626d697373696f6e20646561646c696e6560781b606482015260840161024e565b5f80549080610c298361191a565b909155505f81815260026020526040902080546001600160a01b0319163317815590915060018101610c5c888a83611c4d565b5060028101610c6c868883611c4d565b50346003820181905560048201859055600582018490555f196008830155604051339184917f736ab752f6714f3191bc874ebe0b24d2daa1e5a5281882b7c59d90d19c45fda491610cc4918d918d918b908b90611d07565b60405180910390a3509695505050505050565b5f8281526002602052604090205482906001600160a01b0316610d0c5760405162461bcd60e51b815260040161024e9061183e565b5f83815260026020526040902060048101544210610d615760405162461bcd60e51b81526020600482015260126024820152711cdd589b5a5cdcda5bdb9cc818db1bdcd95960721b604482015260640161024e565b600681015460ff1615610da75760405162461bcd60e51b815260206004820152600e60248201526d185b1c9958591e481a9d5919d95960921b604482015260640161024e565b6006810154610100900460ff1615610dd15760405162461bcd60e51b815260040161024e90611868565b6009810154600a11610e1c5760405162461bcd60e51b8152602060048201526014602482015273746f6f206d616e79207375626d697373696f6e7360601b604482015260640161024e565b6040805160808101825233815260208082018681525f8385018181528551808501909652818652606085019586526009870180546001808201835591845294909220855160049095020180546001600160a01b0319166001600160a01b039095169490941784559151908301555160028201805460ff191691151591909117905591519091906003820190610eb19082611b8d565b50505060098101543390610ec790600190611d4c565b60405186907f94cdee4274a7d9f10a75de5b2a8af2dc478a097d4829621fc779705fbeb040c2905f90a450505050565b5f818152600260205260408120546060908190839081908190819081908190819088908c906001600160a01b0316610f415760405162461bcd60e51b815260040161024e9061183e565b5f8d8152600260208190526040909120805460038201546004830154600584015460068501546009860154600887015460018801805498996001600160a01b039098169890978a019695949360ff808216946101009092041692909160078c01908a90610fad906118ce565b80601f0160208091040260200160405190810160405280929190818152602001828054610fd9906118ce565b80156110245780601f10610ffb57610100808354040283529160200191611024565b820191905f5260205f20905b81548152906001019060200180831161100757829003601f168201915b50505050509950888054611037906118ce565b80601f0160208091040260200160405190810160405280929190818152602001828054611063906118ce565b80156110ae5780601f10611085576101008083540402835291602001916110ae565b820191905f5260205f20905b81548152906001019060200180831161109157829003601f168201915b505050505098508080546110c1906118ce565b80601f01602080910402602001604051908101604052809291908181526020018280546110ed906118ce565b80156111385780601f1061110f57610100808354040283529160200191611138565b820191905f5260205f20905b81548152906001019060200180831161111b57829003601f168201915b505050505090509c509c509c509c509c509c509c509c509c509c509c50505091939597999b90929496989a50565b5f8581526002602052604090205485906001600160a01b031661119b5760405162461bcd60e51b815260040161024e9061183e565b5f86815260026020526040902060048101544210156111fc5760405162461bcd60e51b815260206004820152601960248201527f7375626d697373696f6e207068617365206e6f74206f76657200000000000000604482015260640161024e565b806005015442106112435760405162461bcd60e51b81526020600482015260116024820152703932bb32b0b610383430b9b29037bb32b960791b604482015260640161024e565b600981015486106112665760405162461bcd60e51b815260040161024e90611893565b5f81600901878154811061127c5761127c6118ba565b5f918252602090912060049091020180549091506001600160a01b031633146112dd5760405162461bcd60e51b81526020600482015260136024820152723737ba103cb7bab91039bab136b4b9b9b4b7b760691b604482015260640161024e565b600281015460ff16156113255760405162461bcd60e51b815260206004820152601060248201526f185b1c9958591e481c995d99585b195960821b604482015260640161024e565b6107d08511156113695760405162461bcd60e51b815260206004820152600f60248201526e616e7377657220746f6f206c6f6e6760881b604482015260640161024e565b5f868686338c604051602001611383959493929190611d5f565b604051602081830303815290604052805190602001209050816001015481146113e45760405162461bcd60e51b81526020600482015260136024820152720c6dedadad2e8dacadce840dad2e6dac2e8c6d606b1b604482015260640161024e565b60028201805460ff1916600117905560038201611402878983611c4d565b50604051339089908b907f30cd907c52cb0d98c4502ca97784ad8dd7813786ea1a7cce6e1594fe96c20b16905f90a4505050505050505050565b60605f80846001600160a01b0316846040516114589190611d90565b5f604051808303815f865af19150503d805f8114611491576040519150601f19603f3d011682016040523d82523d5f602084013e611496565b606091505b5091509150816114a857805160208201fd5b6001600160a01b03851661080114806114cb57506001600160a01b038516610802145b806114e057506001600160a01b03851661081b145b15611506575f818060200190518101906114fa9190611dab565b945061150a9350505050565b9150505b92915050565b5f8060408385031215611521575f80fd5b50508035926020909101359150565b5f5b8381101561154a578181015183820152602001611532565b50505f910152565b5f8151808452611569816020860160208601611530565b601f01601f19169290920160200192915050565b60018060a01b03851681528360208201528215156040820152608060608201525f6115ab6080830184611552565b9695505050505050565b5f8083601f8401126115c5575f80fd5b50813567ffffffffffffffff8111156115dc575f80fd5b6020830191508360208285010111156115f3575f80fd5b9250929050565b5f805f6040848603121561160c575f80fd5b83359250602084013567ffffffffffffffff811115611629575f80fd5b611635868287016115b5565b9497909650939450505050565b5f60208284031215611652575f80fd5b5035919050565b6001600160a01b038b168152610140602082018190525f9061167d8382018d611552565b90508281036040840152611691818c611552565b90508960608401528860808401528760a084015286151560c084015285151560e08401528281036101008401526116c88186611552565b915050826101208301529b9a5050505050505050505050565b5f805f805f80608087890312156116f6575f80fd5b863567ffffffffffffffff8082111561170d575f80fd5b6117198a838b016115b5565b90985096506020890135915080821115611731575f80fd5b5061173e89828a016115b5565b979a9699509760408101359660609091013595509350505050565b6001600160a01b038c168152610160602082018190525f9061177d8382018e611552565b90508281036040840152611791818d611552565b90508a60608401528960808401528860a084015287151560c084015286151560e084015285610100840152846101208401528281036101408401526117d68185611552565b9e9d5050505050505050505050505050565b5f805f805f608086880312156117fc575f80fd5b8535945060208601359350604086013567ffffffffffffffff811115611820575f80fd5b61182c888289016115b5565b96999598509660600135949350505050565b60208082526010908201526f189bdd5b9d1e481b9bdd08199bdd5b9960821b604082015260600190565b602080825260119082015270185b1c9958591e48199a5b985b1a5e9959607a1b604082015260600190565b6020808252600d908201526c0d2dcecc2d8d2c840d2dcc8caf609b1b604082015260600190565b634e487b7160e01b5f52603260045260245ffd5b600181811c908216806118e257607f821691505b60208210810361190057634e487b7160e01b5f52602260045260245ffd5b50919050565b634e487b7160e01b5f52601160045260245ffd5b5f6001820161192b5761192b611906565b5060010190565b634e487b7160e01b5f52604160045260245ffd5b5f82601f830112611955575f80fd5b815167ffffffffffffffff8082111561197057611970611932565b604051601f8301601f19908116603f0116810190828211818310171561199857611998611932565b816040528381528660208588010111156119b0575f80fd5b6115ab846020830160208901611530565b5f606082840312156119d1575f80fd5b6040516060810167ffffffffffffffff82821081831117156119f5576119f5611932565b816040528293508451915080821115611a0c575f80fd5b611a1886838701611946565b83526020850151915080821115611a2d575f80fd5b611a3986838701611946565b60208401526040850151915080821115611a51575f80fd5b50611a5e85828601611946565b6040830152505092915050565b5f805f805f60a08688031215611a7f575f80fd5b85518015158114611a8e575f80fd5b602087015190955067ffffffffffffffff80821115611aab575f80fd5b611ab789838a01611946565b95506040880151915080821115611acc575f80fd5b611ad889838a01611946565b94506060880151915080821115611aed575f80fd5b611af989838a01611946565b93506080880151915080821115611b0e575f80fd5b50611b1b888289016119c1565b9150509295509295909350565b602081525f611b3a6020830184611552565b9392505050565b601f821115611b8857805f5260205f20601f840160051c81016020851015611b665750805b601f840160051c820191505b81811015611b85575f8155600101611b72565b50505b505050565b815167ffffffffffffffff811115611ba757611ba7611932565b611bbb81611bb584546118ce565b84611b41565b602080601f831160018114611bee575f8415611bd75750858301515b5f19600386901b1c1916600185901b178555611c45565b5f85815260208120601f198616915b82811015611c1c57888601518255948401946001909101908401611bfd565b5085821015611c3957878501515f19600388901b60f8161c191681555b505060018460011b0185555b505050505050565b67ffffffffffffffff831115611c6557611c65611932565b611c7983611c7383546118ce565b83611b41565b5f601f841160018114611caa575f8515611c935750838201355b5f19600387901b1c1916600186901b178355611b85565b5f83815260208120601f198716915b82811015611cd95786850135825560209485019460019092019101611cb9565b5086821015611cf5575f1960f88860031b161c19848701351681555b505060018560011b0183555050505050565b60808152846080820152848660a08301375f60a086830101525f60a0601f19601f88011683010190508460208301528360408301528260608301529695505050505050565b8181038181111561150a5761150a611906565b8486823790930191825260601b6bffffffffffffffffffffffff191660208201526034810191909152605401919050565b5f8251611da1818460208701611530565b9190910192915050565b5f8060408385031215611dbc575f80fd5b825167ffffffffffffffff80821115611dd3575f80fd5b611ddf86838701611946565b93506020850151915080821115611df4575f80fd5b50611e0185828601611946565b915050925092905056fea26469706673582212205ed92fdfac3284552f11dbd997a14fc56a051520e30eb1ad5c66b307bb69f39464736f6c63430008180033",
  "linkReferences": {},
  "deployedLinkReferences": {},
  "immutableReferences": {},
  "inputSourceName": "project/contracts/AIJudge.sol",
  "buildInfoId": "solc-0_8_24-f014a53ffe27d2362494dca357cca24bbe65cdf0"
}